{
  "contractName": "CryptoMedsSupplyChain",
  "abi": [
    {
      "anonymous": false,
      "inputs": [
        {
          "indexed": false,
          "internalType": "uint256",
          "name": "id",
          "type": "uint256"
        },
        {
          "indexed": false,
          "internalType": "string",
          "name": "name",
          "type": "string"
        },
        {
          "indexed": false,
          "internalType": "string",
          "name": "manufacturer",
          "type": "string"
        },
        {
          "indexed": false,
          "internalType": "string",
          "name": "distributor",
          "type": "string"
        },
        {
          "indexed": false,
          "internalType": "string",
          "name": "pharmacy",
          "type": "string"
        },
        {
          "indexed": false,
          "internalType": "string",
          "name": "patient",
          "type": "string"
        },
        {
          "indexed": false,
          "internalType": "uint256",
          "name": "timestamp",
          "type": "uint256"
        },
        {
          "indexed": false,
          "internalType": "string",
          "name": "status",
          "type": "string"
        }
      ],
      "name": "MedicationUpdated",
      "type": "event"
    },
    {
      "inputs": [],
      "name": "medicationCount",
      "outputs": [
        {
          "internalType": "uint256",
          "name": "",
          "type": "uint256"
        }
      ],
      "stateMutability": "view",
      "type": "function",
      "constant": true
    },
    {
      "inputs": [
        {
          "internalType": "uint256",
          "name": "",
          "type": "uint256"
        }
      ],
      "name": "medications",
      "outputs": [
        {
          "internalType": "uint256",
          "name": "id",
          "type": "uint256"
        },
        {
          "internalType": "string",
          "name": "name",
          "type": "string"
        },
        {
          "internalType": "string",
          "name": "manufacturer",
          "type": "string"
        },
        {
          "internalType": "string",
          "name": "distributor",
          "type": "string"
        },
        {
          "internalType": "string",
          "name": "pharmacy",
          "type": "string"
        },
        {
          "internalType": "string",
          "name": "patient",
          "type": "string"
        },
        {
          "internalType": "uint256",
          "name": "timestamp",
          "type": "uint256"
        },
        {
          "internalType": "string",
          "name": "status",
          "type": "string"
        }
      ],
      "stateMutability": "view",
      "type": "function",
      "constant": true
    },
    {
      "inputs": [
        {
          "internalType": "string",
          "name": "_name",
          "type": "string"
        },
        {
          "internalType": "string",
          "name": "_manufacturer",
          "type": "string"
        },
        {
          "internalType": "string",
          "name": "_distributor",
          "type": "string"
        },
        {
          "internalType": "string",
          "name": "_pharmacy",
          "type": "string"
        },
        {
          "internalType": "string",
          "name": "_patient",
          "type": "string"
        },
        {
          "internalType": "string",
          "name": "_status",
          "type": "string"
        }
      ],
      "name": "addMedication",
      "outputs": [],
      "stateMutability": "nonpayable",
      "type": "function"
    },
    {
      "inputs": [
        {
          "internalType": "uint256",
          "name": "_id",
          "type": "uint256"
        }
      ],
      "name": "getMedication",
      "outputs": [
        {
          "components": [
            {
              "internalType": "uint256",
              "name": "id",
              "type": "uint256"
            },
            {
              "internalType": "string",
              "name": "name",
              "type": "string"
            },
            {
              "internalType": "string",
              "name": "manufacturer",
              "type": "string"
            },
            {
              "internalType": "string",
              "name": "distributor",
              "type": "string"
            },
            {
              "internalType": "string",
              "name": "pharmacy",
              "type": "string"
            },
            {
              "internalType": "string",
              "name": "patient",
              "type": "string"
            },
            {
              "internalType": "uint256",
              "name": "timestamp",
              "type": "uint256"
            },
            {
              "internalType": "string",
              "name": "status",
              "type": "string"
            }
          ],
          "internalType": "struct CryptoMedsSupplyChain.Medication",
          "name": "",
          "type": "tuple"
        }
      ],
      "stateMutability": "view",
      "type": "function",
      "constant": true
    }
  ],
  "bytecode": "0x608060405234801561001057600080fd5b506110c8806100206000396000f3fe608060405234801561001057600080fd5b506004361061004c5760003560e01c80638d72d67014610051578063a586fdf91461006f578063d22194261461008b578063fa8547f6146100bb575b600080fd5b6100596100f2565b6040516100669190610dc5565b60405180910390f35b61008960048036038101906100849190610afe565b6100f8565b005b6100a560048036038101906100a09190610c17565b610274565b6040516100b29190610da3565b60405180910390f35b6100d560048036038101906100d09190610c17565b610621565b6040516100e9989796959493929190610de0565b60405180910390f35b60015481565b6001600081548092919061010b90610f94565b91905055506040518061010001604052806001548152602001878152602001868152602001858152602001848152602001838152602001428152602001828152506000806001548152602001908152602001600020600082015181600001556020820151816001019080519060200190610186929190610999565b5060408201518160020190805190602001906101a3929190610999565b5060608201518160030190805190602001906101c0929190610999565b5060808201518160040190805190602001906101dd929190610999565b5060a08201518160050190805190602001906101fa929190610999565b5060c0820151816006015560e0820151816007019080519060200190610221929190610999565b509050507fbceaf2ba2303c696d238dbcbdd20dc3f7f8b393a5ef24859ef573b718743edcc60015487878787874288604051610264989796959493929190610de0565b60405180910390a1505050505050565b61027c610a1f565b60008083815260200190815260200160002060405180610100016040529081600082015481526020016001820180546102b490610f62565b80601f01602080910402602001604051908101604052809291908181526020018280546102e090610f62565b801561032d5780601f106103025761010080835404028352916020019161032d565b820191906000526020600020905b81548152906001019060200180831161031057829003601f168201915b5050505050815260200160028201805461034690610f62565b80601f016020809104026020016040519081016040528092919081815260200182805461037290610f62565b80156103bf5780601f10610394576101008083540402835291602001916103bf565b820191906000526020600020905b8154815290600101906020018083116103a257829003601f168201915b505050505081526020016003820180546103d890610f62565b80601f016020809104026020016040519081016040528092919081815260200182805461040490610f62565b80156104515780601f1061042657610100808354040283529160200191610451565b820191906000526020600020905b81548152906001019060200180831161043457829003601f168201915b5050505050815260200160048201805461046a90610f62565b80601f016020809104026020016040519081016040528092919081815260200182805461049690610f62565b80156104e35780601f106104b8576101008083540402835291602001916104e3565b820191906000526020600020905b8154815290600101906020018083116104c657829003601f168201915b505050505081526020016005820180546104fc90610f62565b80601f016020809104026020016040519081016040528092919081815260200182805461052890610f62565b80156105755780601f1061054a57610100808354040283529160200191610575565b820191906000526020600020905b81548152906001019060200180831161055857829003601f168201915b505050505081526020016006820154815260200160078201805461059890610f62565b80601f01602080910402602001604051908101604052809291908181526020018280546105c490610f62565b80156106115780601f106105e657610100808354040283529160200191610611565b820191906000526020600020905b8154815290600101906020018083116105f457829003601f168201915b5050505050815250509050919050565b600060205280600052604060002060009150905080600001549080600101805461064a90610f62565b80601f016020809104026020016040519081016040528092919081815260200182805461067690610f62565b80156106c35780601f10610698576101008083540402835291602001916106c3565b820191906000526020600020905b8154815290600101906020018083116106a657829003601f168201915b5050505050908060020180546106d890610f62565b80601f016020809104026020016040519081016040528092919081815260200182805461070490610f62565b80156107515780601f1061072657610100808354040283529160200191610751565b820191906000526020600020905b81548152906001019060200180831161073457829003601f168201915b50505050509080600301805461076690610f62565b80601f016020809104026020016040519081016040528092919081815260200182805461079290610f62565b80156107df5780601f106107b4576101008083540402835291602001916107df565b820191906000526020600020905b8154815290600101906020018083116107c257829003601f168201915b5050505050908060040180546107f490610f62565b80601f016020809104026020016040519081016040528092919081815260200182805461082090610f62565b801561086d5780601f106108425761010080835404028352916020019161086d565b820191906000526020600020905b81548152906001019060200180831161085057829003601f168201915b50505050509080600501805461088290610f62565b80601f01602080910402602001604051908101604052809291908181526020018280546108ae90610f62565b80156108fb5780601f106108d0576101008083540402835291602001916108fb565b820191906000526020600020905b8154815290600101906020018083116108de57829003601f168201915b50505050509080600601549080600701805461091690610f62565b80601f016020809104026020016040519081016040528092919081815260200182805461094290610f62565b801561098f5780601f106109645761010080835404028352916020019161098f565b820191906000526020600020905b81548152906001019060200180831161097257829003601f168201915b5050505050905088565b8280546109a590610f62565b90600052602060002090601f0160209004810192826109c75760008555610a0e565b82601f106109e057805160ff1916838001178555610a0e565b82800160010185558215610a0e579182015b82811115610a0d5782518255916020019190600101906109f2565b5b509050610a1b9190610a64565b5090565b60405180610100016040528060008152602001606081526020016060815260200160608152602001606081526020016060815260200160008152602001606081525090565b5b80821115610a7d576000816000905550600101610a65565b5090565b6000610a94610a8f84610eb9565b610e88565b905082815260208101848484011115610aac57600080fd5b610ab7848285610f20565b509392505050565b600082601f830112610ad057600080fd5b8135610ae0848260208601610a81565b91505092915050565b600081359050610af88161107b565b92915050565b60008060008060008060c08789031215610b1757600080fd5b600087013567ffffffffffffffff811115610b3157600080fd5b610b3d89828a01610abf565b965050602087013567ffffffffffffffff811115610b5a57600080fd5b610b6689828a01610abf565b955050604087013567ffffffffffffffff811115610b8357600080fd5b610b8f89828a01610abf565b945050606087013567ffffffffffffffff811115610bac57600080fd5b610bb889828a01610abf565b935050608087013567ffffffffffffffff811115610bd557600080fd5b610be189828a01610abf565b92505060a087013567ffffffffffffffff811115610bfe57600080fd5b610c0a89828a01610abf565b9150509295509295509295565b600060208284031215610c2957600080fd5b6000610c3784828501610ae9565b91505092915050565b6000610c4b82610ee9565b610c558185610ef4565b9350610c65818560208601610f2f565b610c6e8161106a565b840191505092915050565b6000610c8482610ee9565b610c8e8185610f05565b9350610c9e818560208601610f2f565b610ca78161106a565b840191505092915050565b600061010083016000830151610ccb6000860182610d85565b5060208301518482036020860152610ce38282610c40565b91505060408301518482036040860152610cfd8282610c40565b91505060608301518482036060860152610d178282610c40565b91505060808301518482036080860152610d318282610c40565b91505060a083015184820360a0860152610d4b8282610c40565b91505060c0830151610d6060c0860182610d85565b5060e083015184820360e0860152610d788282610c40565b9150508091505092915050565b610d8e81610f16565b82525050565b610d9d81610f16565b82525050565b60006020820190508181036000830152610dbd8184610cb2565b905092915050565b6000602082019050610dda6000830184610d94565b92915050565b600061010082019050610df6600083018b610d94565b8181036020830152610e08818a610c79565b90508181036040830152610e1c8189610c79565b90508181036060830152610e308188610c79565b90508181036080830152610e448187610c79565b905081810360a0830152610e588186610c79565b9050610e6760c0830185610d94565b81810360e0830152610e798184610c79565b90509998505050505050505050565b6000604051905081810181811067ffffffffffffffff82111715610eaf57610eae61103b565b5b8060405250919050565b600067ffffffffffffffff821115610ed457610ed361103b565b5b601f19601f8301169050602081019050919050565b600081519050919050565b600082825260208201905092915050565b600082825260208201905092915050565b6000819050919050565b82818337600083830152505050565b60005b83811015610f4d578082015181840152602081019050610f32565b83811115610f5c576000848401525b50505050565b60006002820490506001821680610f7a57607f821691505b60208210811415610f8e57610f8d61100c565b5b50919050565b6000610f9f82610f16565b91507fffffffffffffffffffffffffffffffffffffffffffffffffffffffffffffffff821415610fd257610fd1610fdd565b5b600182019050919050565b7f4e487b7100000000000000000000000000000000000000000000000000000000600052601160045260246000fd5b7f4e487b7100000000000000000000000000000000000000000000000000000000600052602260045260246000fd5b7f4e487b7100000000000000000000000000000000000000000000000000000000600052604160045260246000fd5b6000601f19601f8301169050919050565b61108481610f16565b811461108f57600080fd5b5056fea26469706673582212200824da7b37e38297693e28dbf9c5747f732362eca752575146f111d6d9fac51764736f6c63430008000033",
  "immutableReferences": {},
  "source": "// SPDX-License-Identifier: MIT\r\npragma solidity ^0.8.0;\r\n\r\ncontract CryptoMedsSupplyChain {\r\n    struct Medication {\r\n        uint id;\r\n        string name;\r\n        string manufacturer;\r\n        string distributor;\r\n        string pharmacy;\r\n        string patient;\r\n        uint256 timestamp;\r\n        string status;\r\n    }\r\n\r\n    mapping(uint => Medication) public medications;\r\n    uint public medicationCount;\r\n\r\n    event MedicationUpdated(\r\n        uint id,\r\n        string name,\r\n        string manufacturer,\r\n        string distributor,\r\n        string pharmacy,\r\n        string patient,\r\n        uint256 timestamp,\r\n        string status\r\n    );\r\n\r\n    function addMedication(\r\n        string memory _name,\r\n        string memory _manufacturer,\r\n        string memory _distributor,\r\n        string memory _pharmacy,\r\n        string memory _patient,\r\n        string memory _status\r\n    ) public {\r\n        medicationCount++;\r\n        medications[medicationCount] = Medication(\r\n            medicationCount,\r\n            _name,\r\n            _manufacturer,\r\n            _distributor,\r\n            _pharmacy,\r\n            _patient,\r\n            block.timestamp,\r\n            _status\r\n        );\r\n\r\n        emit MedicationUpdated(\r\n            medicationCount,\r\n            _name,\r\n            _manufacturer,\r\n            _distributor,\r\n            _pharmacy,\r\n            _patient,\r\n            block.timestamp,\r\n            _status\r\n        );\r\n    }\r\n\r\n    function getMedication(uint _id) public view returns (Medication memory) {\r\n        return medications[_id];\r\n    }\r\n}\r\n",
  "sourcePath": "C:\\Users\\Samsung\\Documents\\CryptoMeds\\contracts\\CryptoMedsSupplyChain.sol",
  "compiler": {
    "name": "solc",
    "version": "0.8.0+commit.c7dfd78e.Emscripten.clang"
  },
  "schemaVersion": "3.4.16",
  "updatedAt": "2024-12-13T17:04:46.909Z",
  "networkType": "ethereum",
  "devdoc": {
    "kind": "dev",
    "methods": {},
    "version": 1
  },
  "userdoc": {
    "kind": "user",
    "methods": {},
    "version": 1
  }
}